:020000020000FC
:100000000C942A000C942A000C942A000C942A00C8
:100010000C942A000C942A000C942A000C942A00B8
:100020000C942A000C942A000C942A000C942A00A8
:100030000C942A000C944E000C942A000C942A0074
:100040000C942A000C942A000C942A000C942A0088
:100050000C942A0008E00EBF0FE50DBF00EF04BBB3
:1000600000E401BB04E00ABBF89400E80AB906EA20
:1000700000BD00E000BD03E309B9549A9698DA98F0
:1000800008E003BF09B70C7F09BF20E030E0789497
:100090000E94620010E80E94A200FFCF4FB7239594
:1000A0001CB10E94B500263058F03395323018F458
:1000B00010EC0E94A200243118F01EEC0E94A20055
:1000C0004FBF1895DA9800E205BB969A0E94C800C7
:1000D000969800E205BB969A0E94C800969800E8A0
:1000E00005BB969A0E94C80096980E94DA0000E02C
:1000F00005BB969A0E94C800969800EC05BB969A9C
:100100000E94C80096980E94DA0000E005BB969A0B
:100110000E94C800969800E105BB969A0E94C8000C
:1001200096980E94DA0000E005BB969A0E94C800EB
:10013000969800E205BB969A0E94C80096980E9485
:10014000DA000895DA98012F007F05BB969A000027
:1001500000009698012F0F70029505BB969A00003B
:10016000000096980E94C8000895DA9A012F007F37
:1001700005BB969A000000009698012F0F7002951B
:1001800005BB969A0000000096980E94C80008954A
:1001900000E002BF06E00CBF03B7087F036003BFA7
:1001A00008B701FFFDCF08B7026008BF03B7087F9B
:1001B00003BF089500E002BF00EF0CBF03B7087F44
:1001C000056003BF08B701FFFDCF08B7026008BF95
:0801D00003B7087F03BF089587
:00000001FF
