:020000020000FC
:100000000C942A000C942A000C942A000C942A00C8
:100010000C942A000C942A000C942A000C942A00B8
:100020000C942A000C942A000C942A000C942A00A8
:100030000C942A000C942A000C942A000C942A0098
:100040000C94AE000C942A000C942A000C942A0004
:100050000C942A0008E00EBF0FE50DBF0FEF07BBA1
:1000600010E018BBF89400E207B90FE206B900B738
:100070000F71006A00BF08E00AB906EA00BD00E09F
:1000800000BD03E309B900E00FBD08E00EBD09B7EC
:10009000037C09BF0EE10BBD05E80ABD0EE109BDF9
:1000A00005E808BD08E003BF09B70C7F09BF0EE4EF
:1000B0000CB90E94FB0009E60CB90E94FB0006E7A0
:1000C0000CB90E94FB0005E60CB90E94FB000CE68F
:1000D0000CB90E94FB0000E20CB90E94FB000CE48A
:1000E0000CB90E94FB0005E70CB90E94FB000DE66D
:1000F0000CB90E94FB0009E60CB90E94FB000EE659
:100100000CB90E94FB000FE60CB90E94FB000AE745
:100110000CB90E94FB0009E60CB90E94FB0004E741
:100120000CB90E94FB0001E60CB90E94FB0004E739
:100130000CB90E94FB0005E60CB90E94FB000AE323
:100140000CB90E94FB0000E20CB90E94FB007894FD
:10015000379A0EB50D7F05600EBDFFCF4FB715B1B5
:1001600008B7086008BF00E008BB00E30CB90E94B4
:10017000FB001430F0F101E008BB01E30CB90E9470
:10018000FB001031B0F103E008BB02E30CB90E94A0
:10019000FB00183170F107E008BB03E30CB90E94C3
:1001A000FB00123330F10FE008BB04E30CB90E94EE
:1001B000FB001038F0F00FE108BB05E30CB90E941A
:1001C000FB00103AB0F00FE308BB06E30CB90E9445
:1001D000FB00103C70F00FE708BB07E30CB90E946E
:1001E000FB00103E30F00FEF08BB08E30CB90E9493
:0E01F000FB004FBF18955BB155FFFDCF089582
:00000001FF
